{
  "contractName": "DexCoin",
  "abi": [
    {
      "inputs": [],
      "stateMutability": "nonpayable",
      "type": "constructor"
    },
    {
      "anonymous": false,
      "inputs": [
        {
          "indexed": true,
          "internalType": "address",
          "name": "owner",
          "type": "address"
        },
        {
          "indexed": true,
          "internalType": "address",
          "name": "spender",
          "type": "address"
        },
        {
          "indexed": false,
          "internalType": "uint256",
          "name": "value",
          "type": "uint256"
        }
      ],
      "name": "Approval",
      "type": "event"
    },
    {
      "anonymous": false,
      "inputs": [
        {
          "indexed": true,
          "internalType": "address",
          "name": "from",
          "type": "address"
        },
        {
          "indexed": true,
          "internalType": "address",
          "name": "to",
          "type": "address"
        },
        {
          "indexed": false,
          "internalType": "uint256",
          "name": "value",
          "type": "uint256"
        }
      ],
      "name": "Transfer",
      "type": "event"
    },
    {
      "inputs": [
        {
          "internalType": "address",
          "name": "owner",
          "type": "address"
        },
        {
          "internalType": "address",
          "name": "spender",
          "type": "address"
        }
      ],
      "name": "allowance",
      "outputs": [
        {
          "internalType": "uint256",
          "name": "",
          "type": "uint256"
        }
      ],
      "stateMutability": "view",
      "type": "function",
      "constant": true
    },
    {
      "inputs": [
        {
          "internalType": "address",
          "name": "spender",
          "type": "address"
        },
        {
          "internalType": "uint256",
          "name": "amount",
          "type": "uint256"
        }
      ],
      "name": "approve",
      "outputs": [
        {
          "internalType": "bool",
          "name": "",
          "type": "bool"
        }
      ],
      "stateMutability": "nonpayable",
      "type": "function"
    },
    {
      "inputs": [
        {
          "internalType": "address",
          "name": "account",
          "type": "address"
        }
      ],
      "name": "balanceOf",
      "outputs": [
        {
          "internalType": "uint256",
          "name": "",
          "type": "uint256"
        }
      ],
      "stateMutability": "view",
      "type": "function",
      "constant": true
    },
    {
      "inputs": [],
      "name": "decimals",
      "outputs": [
        {
          "internalType": "uint8",
          "name": "",
          "type": "uint8"
        }
      ],
      "stateMutability": "view",
      "type": "function",
      "constant": true
    },
    {
      "inputs": [
        {
          "internalType": "address",
          "name": "spender",
          "type": "address"
        },
        {
          "internalType": "uint256",
          "name": "subtractedValue",
          "type": "uint256"
        }
      ],
      "name": "decreaseAllowance",
      "outputs": [
        {
          "internalType": "bool",
          "name": "",
          "type": "bool"
        }
      ],
      "stateMutability": "nonpayable",
      "type": "function"
    },
    {
      "inputs": [
        {
          "internalType": "address",
          "name": "spender",
          "type": "address"
        },
        {
          "internalType": "uint256",
          "name": "addedValue",
          "type": "uint256"
        }
      ],
      "name": "increaseAllowance",
      "outputs": [
        {
          "internalType": "bool",
          "name": "",
          "type": "bool"
        }
      ],
      "stateMutability": "nonpayable",
      "type": "function"
    },
    {
      "inputs": [],
      "name": "name",
      "outputs": [
        {
          "internalType": "string",
          "name": "",
          "type": "string"
        }
      ],
      "stateMutability": "view",
      "type": "function",
      "constant": true
    },
    {
      "inputs": [],
      "name": "symbol",
      "outputs": [
        {
          "internalType": "string",
          "name": "",
          "type": "string"
        }
      ],
      "stateMutability": "view",
      "type": "function",
      "constant": true
    },
    {
      "inputs": [],
      "name": "totalSupply",
      "outputs": [
        {
          "internalType": "uint256",
          "name": "",
          "type": "uint256"
        }
      ],
      "stateMutability": "view",
      "type": "function",
      "constant": true
    },
    {
      "inputs": [
        {
          "internalType": "address",
          "name": "to",
          "type": "address"
        },
        {
          "internalType": "uint256",
          "name": "amount",
          "type": "uint256"
        }
      ],
      "name": "transfer",
      "outputs": [
        {
          "internalType": "bool",
          "name": "",
          "type": "bool"
        }
      ],
      "stateMutability": "nonpayable",
      "type": "function"
    },
    {
      "inputs": [
        {
          "internalType": "address",
          "name": "from",
          "type": "address"
        },
        {
          "internalType": "address",
          "name": "to",
          "type": "address"
        },
        {
          "internalType": "uint256",
          "name": "amount",
          "type": "uint256"
        }
      ],
      "name": "transferFrom",
      "outputs": [
        {
          "internalType": "bool",
          "name": "",
          "type": "bool"
        }
      ],
      "stateMutability": "nonpayable",
      "type": "function"
    },
    {
      "inputs": [],
      "name": "mintTokens",
      "outputs": [],
      "stateMutability": "nonpayable",
      "type": "function"
    },
    {
      "inputs": [
        {
          "internalType": "uint256",
          "name": "amount",
          "type": "uint256"
        }
      ],
      "name": "promtAccess",
      "outputs": [],
      "stateMutability": "nonpayable",
      "type": "function"
    }
  ],
  "bytecode": "0x60806040523480156200001157600080fd5b506040518060400160405280600781526020017f446578436f696e000000000000000000000000000000000000000000000000008152506040518060400160405280600981526020017f4341544142415449430000000000000000000000000000000000000000000000815250816003908051906020019062000096929190620000b8565b508060049080519060200190620000af929190620000b8565b505050620001cd565b828054620000c69062000168565b90600052602060002090601f016020900481019282620000ea576000855562000136565b82601f106200010557805160ff191683800117855562000136565b8280016001018555821562000136579182015b828111156200013557825182559160200191906001019062000118565b5b50905062000145919062000149565b5090565b5b80821115620001645760008160009055506001016200014a565b5090565b600060028204905060018216806200018157607f821691505b602082108114156200019857620001976200019e565b5b50919050565b7f4e487b7100000000000000000000000000000000000000000000000000000000600052602260045260246000fd5b6114b680620001dd6000396000f3fe608060405234801561001057600080fd5b50600436106100cf5760003560e01c80635973a4871161008c578063a457c2d711610066578063a457c2d714610228578063a9059cbb14610258578063dd62ed3e14610288578063eeb9635c146102b8576100cf565b80635973a487146101be57806370a08231146101da57806395d89b411461020a576100cf565b806306fdde03146100d4578063095ea7b3146100f257806318160ddd1461012257806323b872dd14610140578063313ce56714610170578063395093511461018e575b600080fd5b6100dc6102c2565b6040516100e99190610f33565b60405180910390f35b61010c60048036038101906101079190610d35565b610354565b6040516101199190610f18565b60405180910390f35b61012a610377565b6040516101379190611055565b60405180910390f35b61015a60048036038101906101559190610ce6565b610381565b6040516101679190610f18565b60405180910390f35b6101786103b0565b6040516101859190611070565b60405180910390f35b6101a860048036038101906101a39190610d35565b6103b9565b6040516101b59190610f18565b60405180910390f35b6101d860048036038101906101d39190610d71565b6103f0565b005b6101f460048036038101906101ef9190610c81565b6103fe565b6040516102019190611055565b60405180910390f35b610212610446565b60405161021f9190610f33565b60405180910390f35b610242600480360381019061023d9190610d35565b6104d8565b60405161024f9190610f18565b60405180910390f35b610272600480360381019061026d9190610d35565b61054f565b60405161027f9190610f18565b60405180910390f35b6102a2600480360381019061029d9190610caa565b610572565b6040516102af9190611055565b60405180910390f35b6102c06105f9565b005b6060600380546102d190611185565b80601f01602080910402602001604051908101604052809291908181526020018280546102fd90611185565b801561034a5780601f1061031f5761010080835404028352916020019161034a565b820191906000526020600020905b81548152906001019060200180831161032d57829003601f168201915b5050505050905090565b60008061035f61060d565b905061036c818585610615565b600191505092915050565b6000600254905090565b60008061038c61060d565b90506103998582856107e0565b6103a485858561086c565b60019150509392505050565b60006012905090565b6000806103c461060d565b90506103e58185856103d68589610572565b6103e091906110a7565b610615565b600191505092915050565b6103fa3082610354565b5050565b60008060008373ffffffffffffffffffffffffffffffffffffffff1673ffffffffffffffffffffffffffffffffffffffff168152602001908152602001600020549050919050565b60606004805461045590611185565b80601f016020809104026020016040519081016040528092919081815260200182805461048190611185565b80156104ce5780601f106104a3576101008083540402835291602001916104ce565b820191906000526020600020905b8154815290600101906020018083116104b157829003601f168201915b5050505050905090565b6000806104e361060d565b905060006104f18286610572565b905083811015610536576040517f08c379a000000000000000000000000000000000000000000000000000000000815260040161052d90611015565b60405180910390fd5b6105438286868403610615565b60019250505092915050565b60008061055a61060d565b905061056781858561086c565b600191505092915050565b6000600160008473ffffffffffffffffffffffffffffffffffffffff1673ffffffffffffffffffffffffffffffffffffffff16815260200190815260200160002060008373ffffffffffffffffffffffffffffffffffffffff1673ffffffffffffffffffffffffffffffffffffffff16815260200190815260200160002054905092915050565b61060b33678ac7230489e80000610aed565b565b600033905090565b600073ffffffffffffffffffffffffffffffffffffffff168373ffffffffffffffffffffffffffffffffffffffff161415610685576040517f08c379a000000000000000000000000000000000000000000000000000000000815260040161067c90610ff5565b60405180910390fd5b600073ffffffffffffffffffffffffffffffffffffffff168273ffffffffffffffffffffffffffffffffffffffff1614156106f5576040517f08c379a00000000000000000000000000000000000000000000000000000000081526004016106ec90610f75565b60405180910390fd5b80600160008573ffffffffffffffffffffffffffffffffffffffff1673ffffffffffffffffffffffffffffffffffffffff16815260200190815260200160002060008473ffffffffffffffffffffffffffffffffffffffff1673ffffffffffffffffffffffffffffffffffffffff168152602001908152602001600020819055508173ffffffffffffffffffffffffffffffffffffffff168373ffffffffffffffffffffffffffffffffffffffff167f8c5be1e5ebec7d5bd14f71427d1e84f3dd0314c0f7b2291e5b200ac8c7c3b925836040516107d39190611055565b60405180910390a3505050565b60006107ec8484610572565b90507fffffffffffffffffffffffffffffffffffffffffffffffffffffffffffffffff81146108665781811015610858576040517f08c379a000000000000000000000000000000000000000000000000000000000815260040161084f90610f95565b60405180910390fd5b6108658484848403610615565b5b50505050565b600073ffffffffffffffffffffffffffffffffffffffff168373ffffffffffffffffffffffffffffffffffffffff1614156108dc576040517f08c379a00000000000000000000000000000000000000000000000000000000081526004016108d390610fd5565b60405180910390fd5b600073ffffffffffffffffffffffffffffffffffffffff168273ffffffffffffffffffffffffffffffffffffffff16141561094c576040517f08c379a000000000000000000000000000000000000000000000000000000000815260040161094390610f55565b60405180910390fd5b610957838383610c4d565b60008060008573ffffffffffffffffffffffffffffffffffffffff1673ffffffffffffffffffffffffffffffffffffffff168152602001908152602001600020549050818110156109dd576040517f08c379a00000000000000000000000000000000000000000000000000000000081526004016109d490610fb5565b60405180910390fd5b8181036000808673ffffffffffffffffffffffffffffffffffffffff1673ffffffffffffffffffffffffffffffffffffffff16815260200190815260200160002081905550816000808573ffffffffffffffffffffffffffffffffffffffff1673ffffffffffffffffffffffffffffffffffffffff1681526020019081526020016000206000828254610a7091906110a7565b925050819055508273ffffffffffffffffffffffffffffffffffffffff168473ffffffffffffffffffffffffffffffffffffffff167fddf252ad1be2c89b69c2b068fc378daa952ba7f163c4a11628f55a4df523b3ef84604051610ad49190611055565b60405180910390a3610ae7848484610c52565b50505050565b600073ffffffffffffffffffffffffffffffffffffffff168273ffffffffffffffffffffffffffffffffffffffff161415610b5d576040517f08c379a0000000000000000000000000000000000000000000000000000000008152600401610b5490611035565b60405180910390fd5b610b6960008383610c4d565b8060026000828254610b7b91906110a7565b92505081905550806000808473ffffffffffffffffffffffffffffffffffffffff1673ffffffffffffffffffffffffffffffffffffffff1681526020019081526020016000206000828254610bd091906110a7565b925050819055508173ffffffffffffffffffffffffffffffffffffffff16600073ffffffffffffffffffffffffffffffffffffffff167fddf252ad1be2c89b69c2b068fc378daa952ba7f163c4a11628f55a4df523b3ef83604051610c359190611055565b60405180910390a3610c4960008383610c52565b5050565b505050565b505050565b600081359050610c6681611452565b92915050565b600081359050610c7b81611469565b92915050565b600060208284031215610c9357600080fd5b6000610ca184828501610c57565b91505092915050565b60008060408385031215610cbd57600080fd5b6000610ccb85828601610c57565b9250506020610cdc85828601610c57565b9150509250929050565b600080600060608486031215610cfb57600080fd5b6000610d0986828701610c57565b9350506020610d1a86828701610c57565b9250506040610d2b86828701610c6c565b9150509250925092565b60008060408385031215610d4857600080fd5b6000610d5685828601610c57565b9250506020610d6785828601610c6c565b9150509250929050565b600060208284031215610d8357600080fd5b6000610d9184828501610c6c565b91505092915050565b610da38161110f565b82525050565b6000610db48261108b565b610dbe8185611096565b9350610dce818560208601611152565b610dd781611215565b840191505092915050565b6000610def602383611096565b9150610dfa82611226565b604082019050919050565b6000610e12602283611096565b9150610e1d82611275565b604082019050919050565b6000610e35601d83611096565b9150610e40826112c4565b602082019050919050565b6000610e58602683611096565b9150610e63826112ed565b604082019050919050565b6000610e7b602583611096565b9150610e868261133c565b604082019050919050565b6000610e9e602483611096565b9150610ea98261138b565b604082019050919050565b6000610ec1602583611096565b9150610ecc826113da565b604082019050919050565b6000610ee4601f83611096565b9150610eef82611429565b602082019050919050565b610f038161113b565b82525050565b610f1281611145565b82525050565b6000602082019050610f2d6000830184610d9a565b92915050565b60006020820190508181036000830152610f4d8184610da9565b905092915050565b60006020820190508181036000830152610f6e81610de2565b9050919050565b60006020820190508181036000830152610f8e81610e05565b9050919050565b60006020820190508181036000830152610fae81610e28565b9050919050565b60006020820190508181036000830152610fce81610e4b565b9050919050565b60006020820190508181036000830152610fee81610e6e565b9050919050565b6000602082019050818103600083015261100e81610e91565b9050919050565b6000602082019050818103600083015261102e81610eb4565b9050919050565b6000602082019050818103600083015261104e81610ed7565b9050919050565b600060208201905061106a6000830184610efa565b92915050565b60006020820190506110856000830184610f09565b92915050565b600081519050919050565b600082825260208201905092915050565b60006110b28261113b565b91506110bd8361113b565b9250827fffffffffffffffffffffffffffffffffffffffffffffffffffffffffffffffff038211156110f2576110f16111b7565b5b828201905092915050565b60006111088261111b565b9050919050565b60008115159050919050565b600073ffffffffffffffffffffffffffffffffffffffff82169050919050565b6000819050919050565b600060ff82169050919050565b60005b83811015611170578082015181840152602081019050611155565b8381111561117f576000848401525b50505050565b6000600282049050600182168061119d57607f821691505b602082108114156111b1576111b06111e6565b5b50919050565b7f4e487b7100000000000000000000000000000000000000000000000000000000600052601160045260246000fd5b7f4e487b7100000000000000000000000000000000000000000000000000000000600052602260045260246000fd5b6000601f19601f8301169050919050565b7f45524332303a207472616e7366657220746f20746865207a65726f206164647260008201527f6573730000000000000000000000000000000000000000000000000000000000602082015250565b7f45524332303a20617070726f766520746f20746865207a65726f20616464726560008201527f7373000000000000000000000000000000000000000000000000000000000000602082015250565b7f45524332303a20696e73756666696369656e7420616c6c6f77616e6365000000600082015250565b7f45524332303a207472616e7366657220616d6f756e742065786365656473206260008201527f616c616e63650000000000000000000000000000000000000000000000000000602082015250565b7f45524332303a207472616e736665722066726f6d20746865207a65726f20616460008201527f6472657373000000000000000000000000000000000000000000000000000000602082015250565b7f45524332303a20617070726f76652066726f6d20746865207a65726f2061646460008201527f7265737300000000000000000000000000000000000000000000000000000000602082015250565b7f45524332303a2064656372656173656420616c6c6f77616e63652062656c6f7760008201527f207a65726f000000000000000000000000000000000000000000000000000000602082015250565b7f45524332303a206d696e7420746f20746865207a65726f206164647265737300600082015250565b61145b816110fd565b811461146657600080fd5b50565b6114728161113b565b811461147d57600080fd5b5056fea26469706673582212205530cbcd01993888bc5220af874fc3a833afce806d570e7c445409ac498cf2df64736f6c63430008040033",
  "immutableReferences": {},
  "source": "//SPDX-License-Identifier: GPL-3.0\r\n\r\npragma solidity >=0.8.4;\r\n\r\nimport \"@openzeppelin/contracts/token/ERC20/ERC20.sol\";\r\nimport \"@openzeppelin/contracts/token/ERC20/extensions/ERC20Capped.sol\";\r\n\r\n//LAZY UNCAPPED SUPPLY\r\ncontract DexCoin is ERC20 {\r\n    constructor() ERC20(\"DexCoin\", \"CATABATIC\") {}\r\n\r\n    function mintTokens() external {\r\n        _mint(msg.sender, 10*10**18);\r\n    }\r\n\r\n    function promtAccess(uint amount) external {\r\n        approve(address(this), amount);\r\n    }\r\n\r\n}\r\n\r\n",
  "sourcePath": "C:\\Users\\Abdulhakim\\Desktop\\folder\\0_block\\SOLIDITY-intermediate\\14_truffle_coin_lazy_allow\\contracts\\DexCoin.sol",
  "compiler": {
    "name": "solc",
    "version": "0.8.4+commit.c7e474f2.Emscripten.clang"
  },
  "schemaVersion": "3.4.7",
  "updatedAt": "2022-07-02T17:02:08.453Z",
  "networkType": "ethereum",
  "devdoc": {
    "kind": "dev",
    "methods": {
      "allowance(address,address)": {
        "details": "See {IERC20-allowance}."
      },
      "approve(address,uint256)": {
        "details": "See {IERC20-approve}. NOTE: If `amount` is the maximum `uint256`, the allowance is not updated on `transferFrom`. This is semantically equivalent to an infinite approval. Requirements: - `spender` cannot be the zero address."
      },
      "balanceOf(address)": {
        "details": "See {IERC20-balanceOf}."
      },
      "decimals()": {
        "details": "Returns the number of decimals used to get its user representation. For example, if `decimals` equals `2`, a balance of `505` tokens should be displayed to a user as `5.05` (`505 / 10 ** 2`). Tokens usually opt for a value of 18, imitating the relationship between Ether and Wei. This is the value {ERC20} uses, unless this function is overridden; NOTE: This information is only used for _display_ purposes: it in no way affects any of the arithmetic of the contract, including {IERC20-balanceOf} and {IERC20-transfer}."
      },
      "decreaseAllowance(address,uint256)": {
        "details": "Atomically decreases the allowance granted to `spender` by the caller. This is an alternative to {approve} that can be used as a mitigation for problems described in {IERC20-approve}. Emits an {Approval} event indicating the updated allowance. Requirements: - `spender` cannot be the zero address. - `spender` must have allowance for the caller of at least `subtractedValue`."
      },
      "increaseAllowance(address,uint256)": {
        "details": "Atomically increases the allowance granted to `spender` by the caller. This is an alternative to {approve} that can be used as a mitigation for problems described in {IERC20-approve}. Emits an {Approval} event indicating the updated allowance. Requirements: - `spender` cannot be the zero address."
      },
      "name()": {
        "details": "Returns the name of the token."
      },
      "symbol()": {
        "details": "Returns the symbol of the token, usually a shorter version of the name."
      },
      "totalSupply()": {
        "details": "See {IERC20-totalSupply}."
      },
      "transfer(address,uint256)": {
        "details": "See {IERC20-transfer}. Requirements: - `to` cannot be the zero address. - the caller must have a balance of at least `amount`."
      },
      "transferFrom(address,address,uint256)": {
        "details": "See {IERC20-transferFrom}. Emits an {Approval} event indicating the updated allowance. This is not required by the EIP. See the note at the beginning of {ERC20}. NOTE: Does not update the allowance if the current allowance is the maximum `uint256`. Requirements: - `from` and `to` cannot be the zero address. - `from` must have a balance of at least `amount`. - the caller must have allowance for ``from``'s tokens of at least `amount`."
      }
    },
    "version": 1
  },
  "userdoc": {
    "kind": "user",
    "methods": {},
    "version": 1
  }
}