{
  "contractName": "Transactions",
  "abi": [
    {
      "inputs": [],
      "name": "deposit",
      "outputs": [],
      "stateMutability": "payable",
      "type": "function",
      "payable": true
    },
    {
      "inputs": [
        {
          "internalType": "address payable",
          "name": "_to",
          "type": "address"
        },
        {
          "internalType": "uint256",
          "name": "_amount",
          "type": "uint256"
        }
      ],
      "name": "withdraw",
      "outputs": [],
      "stateMutability": "nonpayable",
      "type": "function"
    },
    {
      "inputs": [],
      "name": "getBalance",
      "outputs": [
        {
          "internalType": "uint256",
          "name": "",
          "type": "uint256"
        }
      ],
      "stateMutability": "view",
      "type": "function",
      "constant": true
    },
    {
      "inputs": [],
      "name": "getAddress",
      "outputs": [
        {
          "internalType": "address",
          "name": "",
          "type": "address"
        }
      ],
      "stateMutability": "view",
      "type": "function",
      "constant": true
    }
  ],
  "bytecode": "0x608060405234801561001057600080fd5b506103c8806100206000396000f3fe60806040526004361061003f5760003560e01c806312065fe01461004457806338cc48311461006f578063d0e30db01461009a578063f3fef3a3146100a4575b600080fd5b34801561005057600080fd5b506100596100cd565b60405161006691906102ae565b60405180910390f35b34801561007b57600080fd5b506100846100d5565b6040516100919190610273565b60405180910390f35b6100a26100dd565b005b3480156100b057600080fd5b506100cb60048036038101906100c691906101ba565b6100df565b005b600047905090565b600030905090565b565b60008273ffffffffffffffffffffffffffffffffffffffff16826040516101059061025e565b60006040518083038185875af1925050503d8060008114610142576040519150601f19603f3d011682016040523d82523d6000602084013e610147565b606091505b505090508061018b576040517f08c379a00000000000000000000000000000000000000000000000000000000081526004016101829061028e565b60405180910390fd5b505050565b60008135905061019f81610364565b92915050565b6000813590506101b48161037b565b92915050565b600080604083850312156101d1576101d0610333565b5b60006101df85828601610190565b92505060206101f0858286016101a5565b9150509250929050565b610203816102e5565b82525050565b60006102166018836102d4565b915061022182610338565b602082019050919050565b60006102396000836102c9565b915061024482610361565b600082019050919050565b61025881610329565b82525050565b60006102698261022c565b9150819050919050565b600060208201905061028860008301846101fa565b92915050565b600060208201905081810360008301526102a781610209565b9050919050565b60006020820190506102c3600083018461024f565b92915050565b600081905092915050565b600082825260208201905092915050565b60006102f082610309565b9050919050565b600061030282610309565b9050919050565b600073ffffffffffffffffffffffffffffffffffffffff82169050919050565b6000819050919050565b600080fd5b7f6661696c656420746f207769746864726177206d6f6e65790000000000000000600082015250565b50565b61036d816102f7565b811461037857600080fd5b50565b61038481610329565b811461038f57600080fd5b5056fea2646970667358221220302b43a6841587a0529b3f0b30728f3457d29470e4c2f90083cd3032451373b664736f6c63430008070033",
  "immutableReferences": {},
  "source": "//SPDX-License-Identifier: GPL-3.0\r\n\r\npragma solidity >=0.8.7;\r\n\r\ncontract Transactions {\r\n    //Address --> Contract\r\n    function deposit() external payable {}\r\n\r\n    //Address --> Contract\r\n    function withdraw(address payable _to, uint _amount) external {\r\n        (bool success, ) = _to.call{value: _amount}(\"\");\r\n        require(success, \"failed to withdraw money\");\r\n    }\r\n\r\n\r\n    //View balance of the contract\r\n    function getBalance() external view returns(uint) {\r\n        return address(this).balance;\r\n    }\r\n\r\n    //View wallet address of the contract\r\n    function getAddress() external view returns(address) {\r\n        return address(this);\r\n    }\r\n\r\n}\r\n\r\n\r\n",
  "sourcePath": "C:\\Users\\Abdulhakim\\Desktop\\folder\\0_block\\SOLIDITY-intermediate\\8_dapp_transactions\\contracts\\Transactions.sol",
  "compiler": {
    "name": "solc",
    "version": "0.8.7+commit.e28d00a7.Emscripten.clang"
  },
  "schemaVersion": "3.4.7",
  "updatedAt": "2022-06-27T12:52:52.223Z",
  "networkType": "ethereum",
  "devdoc": {
    "kind": "dev",
    "methods": {},
    "version": 1
  },
  "userdoc": {
    "kind": "user",
    "methods": {},
    "version": 1
  }
}